{
  "contractName": "Adoption",
  "abi": [
    {
      "constant": true,
      "inputs": [
        {
          "name": "",
          "type": "uint256"
        }
      ],
      "name": "adopters",
      "outputs": [
        {
          "name": "",
          "type": "address"
        }
      ],
      "payable": false,
      "stateMutability": "view",
      "type": "function"
    },
    {
      "constant": false,
      "inputs": [
        {
          "name": "petId",
          "type": "uint256"
        }
      ],
      "name": "adopt",
      "outputs": [
        {
          "name": "",
          "type": "uint256"
        }
      ],
      "payable": false,
      "stateMutability": "nonpayable",
      "type": "function"
    },
    {
      "constant": true,
      "inputs": [],
      "name": "getAdopters",
      "outputs": [
        {
          "name": "",
          "type": "address[16]"
        }
      ],
      "payable": false,
      "stateMutability": "view",
      "type": "function"
    }
  ],
  "bytecode": "0x608060405234801561001057600080fd5b506101de806100206000396000f3fe608060405234801561001057600080fd5b50600436106100415760003560e01c80633de4eb171461004657806343ae80d3146100875780638588b2c5146100c0575b600080fd5b61004e6100ef565b604051808261020080838360005b8381101561007457818101518382015260200161005c565b5050505090500191505060405180910390f35b6100a46004803603602081101561009d57600080fd5b5035610135565b604080516001600160a01b039092168252519081900360200190f35b6100dd600480360360208110156100d657600080fd5b5035610152565b60408051918252519081900360200190f35b6100f7610193565b604080516102008101918290529060009060109082845b81546001600160a01b0316815260019091019060200180831161010e575050505050905090565b6000816010811061014257fe5b01546001600160a01b0316905081565b6000600f82111561016257600080fd5b336000836010811061017057fe5b0180546001600160a01b0319166001600160a01b03929092169190911790555090565b604051806102000160405280601090602082028038833950919291505056fea165627a7a723058204722f1152cd71d8538fcc18845b3c166684eb646653a100c00c4f865abef47f30029",
  "source": "pragma solidity ^0.5.0;\n\ncontract Adoption {\n  address[16] public adopters;\n\n  function adopt(uint petId) public returns (uint) {\n    require(petId >= 0 && petId <= 15);\n\n    adopters[petId] = msg.sender;\n\n    return petId;\n  }\n\n  function getAdopters() public view returns (address[16] memory) {\n    return adopters;\n  }\n}\n",
  "sourcePath": "/Users/andrewdeal/Projects/pet-shop-tutorial/contracts/Adoption.sol",
  "compiler": {
    "name": "solc",
    "version": "0.5.8+commit.23d335f2.Emscripten.clang"
  },
  "schemaVersion": "3.0.16",
  "updatedAt": "2019-10-10T17:59:37.088Z",
  "devdoc": {
    "methods": {}
  },
  "userdoc": {
    "methods": {}
  }
}